{
  "contractName": "ControlAcceso",
  "abi": [
    {
      "inputs": [],
      "payable": false,
      "stateMutability": "nonpayable",
      "type": "constructor"
    },
    {
      "constant": false,
      "inputs": [
        {
          "name": "usuario",
          "type": "string"
        },
        {
          "name": "clave",
          "type": "string"
        }
      ],
      "name": "crearUsuario",
      "outputs": [],
      "payable": false,
      "stateMutability": "nonpayable",
      "type": "function"
    },
    {
      "constant": true,
      "inputs": [
        {
          "name": "usuario",
          "type": "string"
        }
      ],
      "name": "obtenerClave",
      "outputs": [
        {
          "name": "",
          "type": "string"
        }
      ],
      "payable": false,
      "stateMutability": "view",
      "type": "function"
    },
    {
      "constant": false,
      "inputs": [
        {
          "name": "usuario",
          "type": "string"
        },
        {
          "name": "rol",
          "type": "string"
        }
      ],
      "name": "asignarRol",
      "outputs": [],
      "payable": false,
      "stateMutability": "nonpayable",
      "type": "function"
    },
    {
      "constant": false,
      "inputs": [
        {
          "name": "usuario",
          "type": "string"
        },
        {
          "name": "rol",
          "type": "string"
        }
      ],
      "name": "removerRol",
      "outputs": [],
      "payable": false,
      "stateMutability": "nonpayable",
      "type": "function"
    },
    {
      "constant": true,
      "inputs": [
        {
          "name": "usuario",
          "type": "string"
        },
        {
          "name": "rol",
          "type": "string"
        }
      ],
      "name": "rolAsignado",
      "outputs": [
        {
          "name": "",
          "type": "bool"
        }
      ],
      "payable": false,
      "stateMutability": "view",
      "type": "function"
    }
  ],
  "bytecode": "0x60806040523480156200001157600080fd5b50606062000025336200017860201b60201c565b905060016003826040518082805190602001908083835b602083106200006157805182526020820191506020810190506020830392506200003c565b6001836020036101000a038019825116818451168082178552505050505050905001915050908152602001604051809103902060405180807f737570657261646d696e00000000000000000000000000000000000000000000815250600a019050908152602001604051809103902060006101000a81548160ff0219169083151502179055506040518060400160405280600a81526020017f737570657261646d696e00000000000000000000000000000000000000000000815250600460405180807f737570657261646d696e00000000000000000000000000000000000000000000815250600a019050908152602001604051809103902090805190602001906200017092919062000244565b5050620002f3565b60608060146040519080825280601f01601f191660200182016040528015620001b05781602001600182028038833980820191505090505b50905060008090505b60148110156200023a578060130360080260020a8473ffffffffffffffffffffffffffffffffffffffff1681620001ec57fe5b0460f81b828281518110620001fd57fe5b60200101907effffffffffffffffffffffffffffffffffffffffffffffffffffffffffffff1916908160001a9053508080600101915050620001b9565b5080915050919050565b828054600181600116156101000203166002900490600052602060002090601f016020900481019282601f106200028757805160ff1916838001178555620002b8565b82800160010185558215620002b8579182015b82811115620002b75782518255916020019190600101906200029a565b5b509050620002c79190620002cb565b5090565b620002f091905b80821115620002ec576000816000905550600101620002d2565b5090565b90565b610c1080620003036000396000f3fe608060405234801561001057600080fd5b50600436106100575760003560e01c806314ca57ba1461005c57806361b9b87c146101ae578063740121d41461030057806377630f3f1461046a578063a7c0c9f2146105bc575b600080fd5b6101ac6004803603604081101561007257600080fd5b810190808035906020019064010000000081111561008f57600080fd5b8201836020820111156100a157600080fd5b803590602001918460018302840111640100000000831117156100c357600080fd5b91908080601f016020809104026020016040519081016040528093929190818152602001838380828437600081840152601f19601f8201169050808301925050505050505091929192908035906020019064010000000081111561012657600080fd5b82018360208201111561013857600080fd5b8035906020019184600183028401116401000000008311171561015a57600080fd5b91908080601f016020809104026020016040519081016040528093929190818152602001838380828437600081840152601f19601f8201169050808301925050505050505091929192905050506106f0565b005b6102fe600480360360408110156101c457600080fd5b81019080803590602001906401000000008111156101e157600080fd5b8201836020820111156101f357600080fd5b8035906020019184600183028401116401000000008311171561021557600080fd5b91908080601f016020809104026020016040519081016040528093929190818152602001838380828437600081840152601f19601f8201169050808301925050505050505091929192908035906020019064010000000081111561027857600080fd5b82018360208201111561028a57600080fd5b803590602001918460018302840111640100000000831117156102ac57600080fd5b91908080601f016020809104026020016040519081016040528093929190818152602001838380828437600081840152601f19601f8201169050808301925050505050505091929192905050506107dd565b005b6104506004803603604081101561031657600080fd5b810190808035906020019064010000000081111561033357600080fd5b82018360208201111561034557600080fd5b8035906020019184600183028401116401000000008311171561036757600080fd5b91908080601f016020809104026020016040519081016040528093929190818152602001838380828437600081840152601f19601f820116905080830192505050505050509192919290803590602001906401000000008111156103ca57600080fd5b8201836020820111156103dc57600080fd5b803590602001918460018302840111640100000000831117156103fe57600080fd5b91908080601f016020809104026020016040519081016040528093929190818152602001838380828437600081840152601f19601f82011690508083019250505050505050919291929050505061085f565b604051808215151515815260200191505060405180910390f35b6105ba6004803603604081101561048057600080fd5b810190808035906020019064010000000081111561049d57600080fd5b8201836020820111156104af57600080fd5b803590602001918460018302840111640100000000831117156104d157600080fd5b91908080601f016020809104026020016040519081016040528093929190818152602001838380828437600081840152601f19601f8201169050808301925050505050505091929192908035906020019064010000000081111561053457600080fd5b82018360208201111561054657600080fd5b8035906020019184600183028401116401000000008311171561056857600080fd5b91908080601f016020809104026020016040519081016040528093929190818152602001838380828437600081840152601f19601f820116905080830192505050505050509192919290505050610947565b005b610675600480360360208110156105d257600080fd5b81019080803590602001906401000000008111156105ef57600080fd5b82018360208201111561060157600080fd5b8035906020019184600183028401116401000000008311171561062357600080fd5b91908080601f016020809104026020016040519081016040528093929190818152602001838380828437600081840152601f19601f820116905080830192505050505050509192919290505050610a34565b6040518080602001828103825283818151815260200191508051906020019080838360005b838110156106b557808201518184015260208101905061069a565b50505050905090810190601f1680156106e25780820380516001836020036101000a031916815260200191505b509250505060405180910390f35b60006003836040518082805190602001908083835b602083106107285780518252602082019150602081019050602083039250610705565b6001836020036101000a0380198251168184511680821785525050505050509050019150509081526020016040518091039020826040518082805190602001908083835b6020831061078f578051825260208201915060208101905060208303925061076c565b6001836020036101000a038019825116818451168082178552505050505050905001915050908152602001604051809103902060006101000a81548160ff0219169083151502179055505050565b806004836040518082805190602001908083835b6020831061081457805182526020820191506020810190506020830392506107f1565b6001836020036101000a0380198251168184511680821785525050505050509050019150509081526020016040518091039020908051906020019061085a929190610b3f565b505050565b60006003836040518082805190602001908083835b602083106108975780518252602082019150602081019050602083039250610874565b6001836020036101000a0380198251168184511680821785525050505050509050019150509081526020016040518091039020826040518082805190602001908083835b602083106108fe57805182526020820191506020810190506020830392506108db565b6001836020036101000a038019825116818451168082178552505050505050905001915050908152602001604051809103902060009054906101000a900460ff16905092915050565b60016003836040518082805190602001908083835b6020831061097f578051825260208201915060208101905060208303925061095c565b6001836020036101000a0380198251168184511680821785525050505050509050019150509081526020016040518091039020826040518082805190602001908083835b602083106109e657805182526020820191506020810190506020830392506109c3565b6001836020036101000a038019825116818451168082178552505050505050905001915050908152602001604051809103902060006101000a81548160ff0219169083151502179055505050565b60606004826040518082805190602001908083835b60208310610a6c5780518252602082019150602081019050602083039250610a49565b6001836020036101000a03801982511681845116808217855250505050505090500191505090815260200160405180910390208054600181600116156101000203166002900480601f016020809104026020016040519081016040528092919081815260200182805460018160011615610100020316600290048015610b335780601f10610b0857610100808354040283529160200191610b33565b820191906000526020600020905b815481529060010190602001808311610b1657829003601f168201915b50505050509050919050565b828054600181600116156101000203166002900490600052602060002090601f016020900481019282601f10610b8057805160ff1916838001178555610bae565b82800160010185558215610bae579182015b82811115610bad578251825591602001919060010190610b92565b5b509050610bbb9190610bbf565b5090565b610be191905b80821115610bdd576000816000905550600101610bc5565b5090565b9056fea165627a7a72305820a0da5d3ebe8e89bbd709b20365cf378378b691b675f8e1fe1720a4befe56f3e50029",
  "source": "pragma solidity ^0.5.0;\r\n\r\ncontract ControlAcceso {\r\n  address creador;\r\n  string usuario;\r\n  string direccion;\r\n\r\n  mapping(string => mapping(string => bool)) roles;\r\n  \r\n  mapping(string => string )usuarios;\r\n  \r\n\r\n\r\n  constructor () public{\r\n    string memory superUsuario = toString(msg.sender);\r\n    roles[superUsuario][\"superadmin\"] = true;\r\n    usuarios[\"superadmin\"] = \"superadmin\";\r\n  }\r\n  \r\n    function crearUsuario(string memory usuario, string memory clave) public {\r\n     usuarios[usuario]=clave;\r\n   }\r\n\r\n    function obtenerClave (string memory usuario)  public view  returns (string memory) {\r\n    return usuarios[usuario];\r\n  }\r\n  \r\n  function asignarRol(string memory usuario, string memory rol) public {\r\n          roles[usuario][rol] = true;\r\n\r\n      \r\n  }\r\n \r\n\r\n function removerRol (string memory usuario, string memory rol) public {\r\n    roles[usuario][rol] = false;\r\n  } \r\n  \r\n  function rolAsignado (string memory usuario, string memory rol)  public view  returns (bool) {\r\n    return roles[usuario][rol];\r\n  }\r\n  \r\n\r\n  \r\n  function tieneRol (string memory rol) private  returns (bool) {\r\n    \r\n    string memory sender = toString(msg.sender);\r\n    \r\n    if (roles[toString(msg.sender)][rol] == true) {\r\n      return true;\r\n    }\r\n    \r\n  }\r\n\r\n    function toString(address direccion) private returns (string memory) {\r\n        bytes memory b = new bytes(20);\r\n        for (uint i = 0; i < 20; i++)\r\n            b[i] = byte(uint8(uint(direccion) / (2**(8*(19 - i)))));\r\n        return string(b);\r\n    }\r\n    \r\n}",
  "sourcePath": "C:/Users/g521696/workspace/Blockchain/Blockchain/controlAcceso/contracts/ControlAcceso.sol",
  "compiler": {
    "name": "solc",
    "version": "0.5.8+commit.23d335f2.Emscripten.clang"
  },
  "schemaVersion": "3.0.11",
  "updatedAt": "2019-06-27T03:24:41.943Z",
  "devdoc": {
    "methods": {}
  },
  "userdoc": {
    "methods": {}
  }
}