{
  "contractName": "ControlAcceso",
  "abi": [
    {
      "inputs": [],
      "payable": false,
      "stateMutability": "nonpayable",
      "type": "constructor"
    },
    {
      "constant": false,
      "inputs": [
        {
          "name": "usuario",
          "type": "string"
        },
        {
          "name": "clave",
          "type": "string"
        }
      ],
      "name": "crearUsuario",
      "outputs": [],
      "payable": false,
      "stateMutability": "nonpayable",
      "type": "function"
    },
    {
      "constant": true,
      "inputs": [
        {
          "name": "usuario",
          "type": "string"
        }
      ],
      "name": "obtenerClave",
      "outputs": [
        {
          "name": "",
          "type": "string"
        }
      ],
      "payable": false,
      "stateMutability": "view",
      "type": "function"
    },
    {
      "constant": false,
      "inputs": [
        {
          "name": "usuario",
          "type": "string"
        },
        {
          "name": "rol",
          "type": "string"
        }
      ],
      "name": "asignarRol",
      "outputs": [
        {
          "name": "",
          "type": "string"
        }
      ],
      "payable": false,
      "stateMutability": "nonpayable",
      "type": "function"
    },
    {
      "constant": false,
      "inputs": [
        {
          "name": "usuario",
          "type": "string"
        },
        {
          "name": "rol",
          "type": "string"
        }
      ],
      "name": "removerRol",
      "outputs": [],
      "payable": false,
      "stateMutability": "nonpayable",
      "type": "function"
    },
    {
      "constant": true,
      "inputs": [
        {
          "name": "usuario",
          "type": "string"
        },
        {
          "name": "rol",
          "type": "string"
        }
      ],
      "name": "rolAsignado",
      "outputs": [
        {
          "name": "",
          "type": "bool"
        }
      ],
      "payable": false,
      "stateMutability": "view",
      "type": "function"
    },
    {
      "constant": true,
      "inputs": [
        {
          "name": "usuario",
          "type": "string"
        },
        {
          "name": "rol",
          "type": "string"
        }
      ],
      "name": "rolAsignado",
      "outputs": [
        {
          "name": "",
          "type": "bool"
        }
      ],
      "payable": false,
      "stateMutability": "view",
      "type": "function"
    }
  ],
  "bytecode": "0x60806040523480156200001157600080fd5b5060606200002e3362000183640100000000026401000000009004565b905060016003826040518082805190602001908083835b6020831015156200006c578051825260208201915060208101905060208303925062000045565b6001836020036101000a038019825116818451168082178552505050505050905001915050908152602001604051809103902060405180807f737570657261646d696e00000000000000000000000000000000000000000000815250600a019050908152602001604051809103902060006101000a81548160ff0219169083151502179055506040805190810160405280600a81526020017f737570657261646d696e00000000000000000000000000000000000000000000815250600460405180807f737570657261646d696e00000000000000000000000000000000000000000000815250600a019050908152602001604051809103902090805190602001906200017b92919062000273565b505062000322565b60608060146040519080825280601f01601f191660200182016040528015620001bb5781602001600182028038833980820191505090505b50905060008090505b601481101562000269578060130360080260020a8473ffffffffffffffffffffffffffffffffffffffff16811515620001f957fe5b047f01000000000000000000000000000000000000000000000000000000000000000282828151811015156200022b57fe5b9060200101907effffffffffffffffffffffffffffffffffffffffffffffffffffffffffffff1916908160001a9053508080600101915050620001c4565b5080915050919050565b828054600181600116156101000203166002900490600052602060002090601f016020900481019282601f10620002b657805160ff1916838001178555620002e7565b82800160010185558215620002e7579182015b82811115620002e6578251825591602001919060010190620002c9565b5b509050620002f69190620002fa565b5090565b6200031f91905b808211156200031b57600081600090555060010162000301565b5090565b90565b610c7780620003326000396000f3fe60806040526004361061006d576000357c0100000000000000000000000000000000000000000000000000000000900463ffffffff16806314ca57ba1461007257806361b9b87c146101d1578063740121d41461033057806377630f3f146104a7578063a7c0c9f214610606575b600080fd5b34801561007e57600080fd5b506101cf6004803603604081101561009557600080fd5b81019080803590602001906401000000008111156100b257600080fd5b8201836020820111156100c457600080fd5b803590602001918460018302840111640100000000831117156100e657600080fd5b91908080601f016020809104026020016040519081016040528093929190818152602001838380828437600081840152601f19601f8201169050808301925050505050505091929192908035906020019064010000000081111561014957600080fd5b82018360208201111561015b57600080fd5b8035906020019184600183028401116401000000008311171561017d57600080fd5b91908080601f016020809104026020016040519081016040528093929190818152602001838380828437600081840152601f19601f820116905080830192505050505050509192919290505050610747565b005b3480156101dd57600080fd5b5061032e600480360360408110156101f457600080fd5b810190808035906020019064010000000081111561021157600080fd5b82018360208201111561022357600080fd5b8035906020019184600183028401116401000000008311171561024557600080fd5b91908080601f016020809104026020016040519081016040528093929190818152602001838380828437600081840152601f19601f820116905080830192505050505050509192919290803590602001906401000000008111156102a857600080fd5b8201836020820111156102ba57600080fd5b803590602001918460018302840111640100000000831117156102dc57600080fd5b91908080601f016020809104026020016040519081016040528093929190818152602001838380828437600081840152601f19601f820116905080830192505050505050509192919290505050610838565b005b34801561033c57600080fd5b5061048d6004803603604081101561035357600080fd5b810190808035906020019064010000000081111561037057600080fd5b82018360208201111561038257600080fd5b803590602001918460018302840111640100000000831117156103a457600080fd5b91908080601f016020809104026020016040519081016040528093929190818152602001838380828437600081840152601f19601f8201169050808301925050505050505091929192908035906020019064010000000081111561040757600080fd5b82018360208201111561041957600080fd5b8035906020019184600183028401116401000000008311171561043b57600080fd5b91908080601f016020809104026020016040519081016040528093929190818152602001838380828437600081840152601f19601f8201169050808301925050505050505091929192905050506108bc565b604051808215151515815260200191505060405180910390f35b3480156104b357600080fd5b50610604600480360360408110156104ca57600080fd5b81019080803590602001906401000000008111156104e757600080fd5b8201836020820111156104f957600080fd5b8035906020019184600183028401116401000000008311171561051b57600080fd5b91908080601f016020809104026020016040519081016040528093929190818152602001838380828437600081840152601f19601f8201169050808301925050505050505091929192908035906020019064010000000081111561057e57600080fd5b82018360208201111561059057600080fd5b803590602001918460018302840111640100000000831117156105b257600080fd5b91908080601f016020809104026020016040519081016040528093929190818152602001838380828437600081840152601f19601f8201169050808301925050505050505091929192905050506109a8565b005b34801561061257600080fd5b506106cc6004803603602081101561062957600080fd5b810190808035906020019064010000000081111561064657600080fd5b82018360208201111561065857600080fd5b8035906020019184600183028401116401000000008311171561067a57600080fd5b91908080601f016020809104026020016040519081016040528093929190818152602001838380828437600081840152601f19601f820116905080830192505050505050509192919290505050610a99565b6040518080602001828103825283818151815260200191508051906020019080838360005b8381101561070c5780820151818401526020810190506106f1565b50505050905090810190601f1680156107395780820380516001836020036101000a031916815260200191505b509250505060405180910390f35b60006003836040518082805190602001908083835b602083101515610781578051825260208201915060208101905060208303925061075c565b6001836020036101000a0380198251168184511680821785525050505050509050019150509081526020016040518091039020826040518082805190602001908083835b6020831015156107ea57805182526020820191506020810190506020830392506107c5565b6001836020036101000a038019825116818451168082178552505050505050905001915050908152602001604051809103902060006101000a81548160ff0219169083151502179055505050565b806004836040518082805190602001908083835b602083101515610871578051825260208201915060208101905060208303925061084c565b6001836020036101000a038019825116818451168082178552505050505050905001915050908152602001604051809103902090805190602001906108b7929190610ba6565b505050565b60006003836040518082805190602001908083835b6020831015156108f657805182526020820191506020810190506020830392506108d1565b6001836020036101000a0380198251168184511680821785525050505050509050019150509081526020016040518091039020826040518082805190602001908083835b60208310151561095f578051825260208201915060208101905060208303925061093a565b6001836020036101000a038019825116818451168082178552505050505050905001915050908152602001604051809103902060009054906101000a900460ff16905092915050565b60016003836040518082805190602001908083835b6020831015156109e257805182526020820191506020810190506020830392506109bd565b6001836020036101000a0380198251168184511680821785525050505050509050019150509081526020016040518091039020826040518082805190602001908083835b602083101515610a4b5780518252602082019150602081019050602083039250610a26565b6001836020036101000a038019825116818451168082178552505050505050905001915050908152602001604051809103902060006101000a81548160ff0219169083151502179055505050565b60606004826040518082805190602001908083835b602083101515610ad35780518252602082019150602081019050602083039250610aae565b6001836020036101000a03801982511681845116808217855250505050505090500191505090815260200160405180910390208054600181600116156101000203166002900480601f016020809104026020016040519081016040528092919081815260200182805460018160011615610100020316600290048015610b9a5780601f10610b6f57610100808354040283529160200191610b9a565b820191906000526020600020905b815481529060010190602001808311610b7d57829003601f168201915b50505050509050919050565b828054600181600116156101000203166002900490600052602060002090601f016020900481019282601f10610be757805160ff1916838001178555610c15565b82800160010185558215610c15579182015b82811115610c14578251825591602001919060010190610bf9565b5b509050610c229190610c26565b5090565b610c4891905b80821115610c44576000816000905550600101610c2c565b5090565b9056fea165627a7a723058204528857f6b32ec21d48bf2b976835df3d1393d9ffe3a10e30302d7578d70bcf60029",
  "source": "pragma solidity ^0.5.0;\r\n\r\ncontract ControlAcceso {\r\n  address creador;\r\n  string usuario;\r\n  string direccion;\r\n\r\n  mapping(string => mapping(string => bool)) roles;\r\n  \r\n  mapping(string => string )usuarios;\r\n  \r\n\r\n\r\n  constructor () public{\r\n    string memory superUsuario = toString(msg.sender);\r\n    roles[superUsuario]['superadmin'] = true;\r\n    usuarios[\"superadmin\"] = \"superadmin\";\r\n  }\r\n  \r\n    function crearUsuario(string memory usuario, string memory clave) public {\r\n     usuarios[usuario]=clave;\r\n   }\r\n\r\n    function obtenerClave (string memory usuario)  public view  returns (string memory) {\r\n    return usuarios[usuario];\r\n  }\r\n  \r\n  function asignarRol(string memory usuario, string memory rol) public {\r\n          roles[usuario][rol] = true;\r\n\r\n      \r\n  }\r\n \r\n\r\n function removerRol (string memory usuario, string memory rol) public {\r\n    roles[usuario][rol] = false;\r\n  } \r\n  \r\n  function rolAsignado (string memory usuario, string memory rol)  public view  returns (bool) {\r\n    return roles[usuario][rol];\r\n  }\r\n  \r\n\r\n  \r\n  function tieneRol (string memory rol) private  returns (bool) {\r\n    \r\n    string memory sender = toString(msg.sender);\r\n    \r\n    if (roles[toString(msg.sender)][rol] == true) {\r\n      return true;\r\n    }\r\n    \r\n  }\r\n\r\n    function toString(address direccion) private returns (string memory) {\r\n        bytes memory b = new bytes(20);\r\n        for (uint i = 0; i < 20; i++)\r\n            b[i] = byte(uint8(uint(direccion) / (2**(8*(19 - i)))));\r\n        return string(b);\r\n    }\r\n    \r\n}",
  "sourcePath": "F:/controlAcceso/contracts/ControlAcceso.sol",
  "compiler": {
    "name": "solc",
    "version": "0.5.0+commit.1d4f565a.Emscripten.clang"
  },
  "schemaVersion": "3.0.9",
  "updatedAt": "2019-06-26T13:07:04.117Z",
  "devdoc": {
    "methods": {}
  },
  "userdoc": {
    "methods": {}
  }
}